{
  "_format": "hh3-artifact-1",
  "contractName": "RedPacketSystem",
  "sourceName": "contracts/RedPacketSystem.sol",
  "abi": [
    {
      "anonymous": false,
      "inputs": [
        {
          "indexed": true,
          "internalType": "uint256",
          "name": "packetId",
          "type": "uint256"
        },
        {
          "indexed": true,
          "internalType": "address",
          "name": "claimer",
          "type": "address"
        }
      ],
      "name": "AlreadyClaimed",
      "type": "event"
    },
    {
      "anonymous": false,
      "inputs": [
        {
          "indexed": true,
          "internalType": "uint256",
          "name": "packetId",
          "type": "uint256"
        },
        {
          "indexed": true,
          "internalType": "address",
          "name": "owner",
          "type": "address"
        },
        {
          "indexed": false,
          "internalType": "uint256",
          "name": "amount",
          "type": "uint256"
        }
      ],
      "name": "FundsWithdrawn",
      "type": "event"
    },
    {
      "anonymous": false,
      "inputs": [
        {
          "indexed": true,
          "internalType": "uint256",
          "name": "packetId",
          "type": "uint256"
        },
        {
          "indexed": true,
          "internalType": "address",
          "name": "claimer",
          "type": "address"
        },
        {
          "indexed": false,
          "internalType": "uint256",
          "name": "amount",
          "type": "uint256"
        }
      ],
      "name": "PacketClaimed",
      "type": "event"
    },
    {
      "anonymous": false,
      "inputs": [
        {
          "indexed": true,
          "internalType": "uint256",
          "name": "packetId",
          "type": "uint256"
        },
        {
          "indexed": true,
          "internalType": "address",
          "name": "creator",
          "type": "address"
        },
        {
          "indexed": false,
          "internalType": "string",
          "name": "message",
          "type": "string"
        },
        {
          "indexed": false,
          "internalType": "uint256",
          "name": "totalAmount",
          "type": "uint256"
        },
        {
          "indexed": false,
          "internalType": "uint256",
          "name": "totalCount",
          "type": "uint256"
        },
        {
          "indexed": false,
          "internalType": "bool",
          "name": "isEven",
          "type": "bool"
        }
      ],
      "name": "PacketCreated",
      "type": "event"
    },
    {
      "anonymous": false,
      "inputs": [
        {
          "indexed": true,
          "internalType": "uint256",
          "name": "packetId",
          "type": "uint256"
        }
      ],
      "name": "PacketEmpty",
      "type": "event"
    },
    {
      "inputs": [
        {
          "internalType": "uint256",
          "name": "_packetId",
          "type": "uint256"
        }
      ],
      "name": "claimRedPacket",
      "outputs": [],
      "stateMutability": "nonpayable",
      "type": "function"
    },
    {
      "inputs": [
        {
          "internalType": "string",
          "name": "_message",
          "type": "string"
        },
        {
          "internalType": "uint256",
          "name": "_count",
          "type": "uint256"
        },
        {
          "internalType": "bool",
          "name": "_isEven",
          "type": "bool"
        }
      ],
      "name": "createRedPacket",
      "outputs": [],
      "stateMutability": "payable",
      "type": "function"
    },
    {
      "inputs": [
        {
          "internalType": "uint256",
          "name": "",
          "type": "uint256"
        },
        {
          "internalType": "address",
          "name": "",
          "type": "address"
        }
      ],
      "name": "hasClaimed",
      "outputs": [
        {
          "internalType": "bool",
          "name": "",
          "type": "bool"
        }
      ],
      "stateMutability": "view",
      "type": "function"
    },
    {
      "inputs": [],
      "name": "packetCounter",
      "outputs": [
        {
          "internalType": "uint256",
          "name": "",
          "type": "uint256"
        }
      ],
      "stateMutability": "view",
      "type": "function"
    },
    {
      "inputs": [
        {
          "internalType": "uint256",
          "name": "",
          "type": "uint256"
        }
      ],
      "name": "packets",
      "outputs": [
        {
          "internalType": "address",
          "name": "owner",
          "type": "address"
        },
        {
          "internalType": "string",
          "name": "message",
          "type": "string"
        },
        {
          "internalType": "uint256",
          "name": "totalAmount",
          "type": "uint256"
        },
        {
          "internalType": "uint256",
          "name": "balance",
          "type": "uint256"
        },
        {
          "internalType": "uint256",
          "name": "totalCount",
          "type": "uint256"
        },
        {
          "internalType": "uint256",
          "name": "claimedCount",
          "type": "uint256"
        },
        {
          "internalType": "bool",
          "name": "isEven",
          "type": "bool"
        },
        {
          "internalType": "uint256",
          "name": "creationTime",
          "type": "uint256"
        }
      ],
      "stateMutability": "view",
      "type": "function"
    },
    {
      "inputs": [
        {
          "internalType": "uint256",
          "name": "_packetId",
          "type": "uint256"
        }
      ],
      "name": "withdraw",
      "outputs": [],
      "stateMutability": "nonpayable",
      "type": "function"
    }
  ],
  "bytecode": "0x6080604052348015600e575f5ffd5b50610e058061001c5f395ff3fe608060405260043610610054575f3560e01c80632e1a7d4d146100585780636656432e14610079578063873f6f9e14610098578063d0a9e0c0146100e6578063d9bf300514610119578063eac1eb5c1461013b575b5f5ffd5b348015610063575f5ffd5b506100776100723660046109f6565b61014e565b005b348015610084575f5ffd5b506100776100933660046109f6565b61034c565b3480156100a3575f5ffd5b506100d16100b2366004610a0d565b600260209081525f928352604080842090915290825290205460ff1681565b60405190151581526020015b60405180910390f35b3480156100f1575f5ffd5b506101056101003660046109f6565b610630565b6040516100dd989796959493929190610a74565b348015610124575f5ffd5b5061012d5f5481565b6040519081526020016100dd565b610077610149366004610af4565b610707565b5f81815260016020526040902080546001600160a01b031633146101b05760405162461bcd60e51b81526020600482015260146024820152732932b22830b1b5b2ba1d102737ba1037bbb732b960611b60448201526064015b60405180910390fd5b60078101546101c29062015180610bd1565b42116102105760405162461bcd60e51b815260206004820152601a60248201527f5265645061636b65743a204e6f7420657870697265642079657400000000000060448201526064016101a7565b5f81600301541161026d5760405162461bcd60e51b815260206004820152602160248201527f5265645061636b65743a204e6f2062616c616e636520746f20776974686472616044820152607760f81b60648201526084016101a7565b6003810180545f91829055604051909190339083908381818185875af1925050503d805f81146102b8576040519150601f19603f3d011682016040523d82523d5f602084013e6102bd565b606091505b505090508061030e5760405162461bcd60e51b815260206004820152601a60248201527f5265645061636b65743a205769746864726177206661696c656400000000000060448201526064016101a7565b604051828152339085907ff440aec6b52895984d061d622e6edeba6210f7c3e059be920663140c084560d7906020015b60405180910390a350505050565b5f81815260016020526040902080546001600160a01b03166103a75760405162461bcd60e51b8152602060048201526014602482015273149959141858dad95d0e88139bdd08195e1a5cdd60621b60448201526064016101a7565b80600401548160050154106103fe5760405162461bcd60e51b815260206004820152601a60248201527f5265645061636b65743a204e6f207061636b657473206c65667400000000000060448201526064016101a7565b5f82815260026020908152604080832033845290915290205460ff161561044f57604051339083907fa9214540dbdab41c9e79b3f2188acea45d13e6ac15f24990e9f6ddf7cc0e4180905f90a35050565b5f8281526002602090815260408083203384529091528120805460ff191660011790556005820180549161048283610be4565b91905055505f81600401548260050154036104a2575060038101546104f9565b600682015460ff16156104ca57816004015482600201546104c39190610c10565b90506104f9565b6104f68260030154836005015484600401546104e69190610c23565b6104f1906001610bd1565b610942565b90505b816003015481111561050c575060038101545b80826003015f82825461051f9190610c23565b90915550506040515f90339083908381818185875af1925050503d805f8114610563576040519150601f19603f3d011682016040523d82523d5f602084013e610568565b606091505b50509050806105b95760405162461bcd60e51b815260206004820152601a60248201527f5265645061636b65743a205472616e73666572206661696c656400000000000060448201526064016101a7565b604051828152339085907f417fe52fdd60f5067ae3f318564d6bac1c96c21c8fe712ae5b10b1b87c29252c9060200160405180910390a3826004015483600501540361062a5760405184907f6a5b451386472d98de16e229da5c20673aaf448d3d6fe2f2a6662864d55afbd1905f90a25b50505050565b600160208190525f9182526040909120805491810180546001600160a01b039093169261065c90610c36565b80601f016020809104026020016040519081016040528092919081815260200182805461068890610c36565b80156106d35780601f106106aa576101008083540402835291602001916106d3565b820191905f5260205f20905b8154815290600101906020018083116106b657829003601f168201915b50505060028401546003850154600486015460058701546006880154600790980154969793969295509093509160ff169088565b5f34116107615760405162461bcd60e51b815260206004820152602260248201527f5265645061636b65743a204d7573742073656e642045544820746f2063726561604482015261746560f01b60648201526084016101a7565b5f82116107c05760405162461bcd60e51b815260206004820152602760248201527f5265645061636b65743a20436f756e74206d75737420626520677265617465726044820152660207468616e20360cc1b60648201526084016101a7565b8134101561082c5760405162461bcd60e51b815260206004820152603360248201527f5265645061636b65743a20416d6f756e74206d757374206265206174206c65616044820152721cdd080c481dd95a481c195c881c1858dad95d606a1b60648201526084016101a7565b5f5f5f815461083a90610be4565b918290555060408051610100810182523381526020808201888152348385018190526060840152608083018890525f60a0840181905287151560c08501524260e085015285815260019283905293909320825181546001600160a01b0319166001600160a01b0390911617815592519394509092908201906108bc9082610cba565b506040828101516002830155606083015160038301556080830151600483015560a0830151600583015560c083015160068301805460ff191691151591909117905560e09092015160079091015551339082907f3b35b15771039334802186dcd97b3983d12b8b5eca266af821326bdd07a11ea29061033e908890349089908990610d75565b5f815f0361095157505f6109f0565b5f61095c8385610c10565b60408051426020808301919091523360601b6bffffffffffffffffffffffff191682840152605480830189905283518084039091018152607490920190925280519101209091505f6109af836002610da5565b6109b99083610dbc565b6109c4906001610bd1565b90505f6109d2600187610c23565b6109dc9088610c23565b9050808211156109ea578091505b50925050505b92915050565b5f60208284031215610a06575f5ffd5b5035919050565b5f5f60408385031215610a1e575f5ffd5b8235915060208301356001600160a01b0381168114610a3b575f5ffd5b809150509250929050565b5f81518084528060208401602086015e5f602082860101526020601f19601f83011685010191505092915050565b6001600160a01b0389168152610100602082018190525f90610a989083018a610a46565b6040830198909852506060810195909552608085019390935260a0840191909152151560c083015260e09091015292915050565b634e487b7160e01b5f52604160045260245ffd5b80358015158114610aef575f5ffd5b919050565b5f5f5f60608486031215610b06575f5ffd5b833567ffffffffffffffff811115610b1c575f5ffd5b8401601f81018613610b2c575f5ffd5b803567ffffffffffffffff811115610b4657610b46610acc565b604051601f8201601f19908116603f0116810167ffffffffffffffff81118282101715610b7557610b75610acc565b604052818152828201602001881015610b8c575f5ffd5b816020840160208301375f602092820183015294508501359250610bb4905060408501610ae0565b90509250925092565b634e487b7160e01b5f52601160045260245ffd5b808201808211156109f0576109f0610bbd565b5f60018201610bf557610bf5610bbd565b5060010190565b634e487b7160e01b5f52601260045260245ffd5b5f82610c1e57610c1e610bfc565b500490565b818103818111156109f0576109f0610bbd565b600181811c90821680610c4a57607f821691505b602082108103610c6857634e487b7160e01b5f52602260045260245ffd5b50919050565b601f821115610cb557805f5260205f20601f840160051c81016020851015610c935750805b601f840160051c820191505b81811015610cb2575f8155600101610c9f565b50505b505050565b815167ffffffffffffffff811115610cd457610cd4610acc565b610ce881610ce28454610c36565b84610c6e565b6020601f821160018114610d1a575f8315610d035750848201515b5f19600385901b1c1916600184901b178455610cb2565b5f84815260208120601f198516915b82811015610d495787850151825560209485019460019092019101610d29565b5084821015610d6657868401515f19600387901b60f8161c191681555b50505050600190811b01905550565b608081525f610d876080830187610a46565b60208301959095525060408101929092521515606090910152919050565b80820281158282048414176109f0576109f0610bbd565b5f82610dca57610dca610bfc565b50069056fea26469706673582212204fbf40a556c757975ee96dce08bcc96090d87b2fdc17d1bcd33e1b33ed19a6f164736f6c634300081c0033",
  "linkReferences": {},
  "deployedLinkReferences": {},
  "immutableReferences": {},
  "inputSourceName": "project/contracts/RedPacketSystem.sol",
  "buildInfoId": "solc-0_8_28-b620a6b0dd758d3450fad2552521cc15166c31a9"
}